:02000000BB281B
:0E0006008312031332088A00310882000800BA
:10001400831603139818102800000A288312430833
:040024009900080037
:10002800831203131A08F100981C1C2818121816BA
:060038007108F000080051
:0E003E000030831203138C1A0130F00008000A
:10004C0083120313C101C2013F08031965283F083D
:10005C00FF3A03193228BF031F207008003A031D12
:10006C003828322814207008C00041083D0784004D
:10007C0070088000C10A42083E0784000008400650
:10008C00031D4A28C20A5228C2013E0884000008F7
:10009C004006031D5228C20A42083E07840000088D
:1000AC00003A031D642842084102F000F101031CD0
:1000BC00F10370083D078400800168282A283D0858
:0600CC0084008001080021
:1000D20083120313BF013D0884000008BE003E08DE
:1000E200003A03197E283E08C3000A20BF0A3F08CF
:0C00F2003D0784000008BE0070280800D4
:1000FE0003208A110A128000840AB10A0319B20A77
:08010E00F003031D7F28080027
:10011600831203133D088400000803199F283D0835
:1001260084000008F1003E08840071080006031DE3
:100136009F28BD0ABE0A8B283D0884000008F000EF
:100146003E0884000008F002F101031CF1030800D8
:10015600831603139816903083129800831686141C
:10016600061183128C1EBA281A08F000B42808005B
:10017600433083120313A000A1014230A200A30161
:100186004430A400A5014130A600A7013030A800E4
:100196003030A9003030AA003030AB003030AC002F
:1001A6003030AD003030AE005F30AF00B001FC3013
:1001B60083168500073083129F0083160611861466
:1001C600193099001815AB208230FC00DD30FD0097
:1001D600FD0BEB28FC0BEB2800000000051085103A
:1001E60005158515051605178517051CFD283130DB
:1001F600A800FF283030A800851C04293130A9004A
:1002060006293030A900051D0B293130AA000D2919
:100216003030AA00851D12293130AB001429303048
:10022600AB00051E19293130AC001B293030AC005B
:10023600051F20293130AD0022293030AD00851F41
:1002460027293130AE0029293030AE001F20700832
:10025600013A031D6D293330BD002F30BE000A3030
:10026600BF0026203330BD002630BE008B20003074
:100276007106031D402900307006031D432905142D
:100286003330BD002230BE008B2000307106031DC6
:100296004E2900307006031D512905103330BD006C
:1002A6002030BE008B2000307106031D5C29003013
:1002B6007006031D5F2985143330BD002430BE004F
:1002C6008B2000307106031D6A2900307006031D5D
:1002D6006D2985100630FB001330FC00AD30FD00A3
:1002E600FD0B7329FC0B7329FB0B7329000000001F
:0A02F6002830BD006920F8287F2998
:02400E0070211F
:00000001FF
