:02000000BB281B
:0E0006008312031338088A00370882000800AE
:10001400831603139818102800000A28831249082D
:040024009900080037
:10002800831203131A08F100981C1C2818121816BA
:060038007108F000080051
:0E003E000030831203138C1A0130F00008000A
:10004C0083120313C701C801450803196528450825
:10005C00FF3A03193228C5031F207008003A031D0C
:10006C003828322814207008C6004708430784003B
:10007C0070088000C70A4808440784000008460638
:10008C00031D4A28C80A5228C801440884000008E5
:10009C004606031D5228C80A480844078400000875
:1000AC00003A031D642848084702F000F101031CC4
:1000BC00F103700843078400800168282A2843084C
:0600CC0084008001080021
:1000D20083120313C501430884000008C4004408C6
:1000E200003A03197E284408C9000A20C50A4508B7
:0C00F200430784000008C40070280800C8
:1000FE0003208A110A128000840AB70A0319B80A6B
:08010E00F003031D7F28080027
:100116008312031343088400000803199F28430829
:1001260084000008F1004408840071080006031DDD
:100136009F28C30AC40A8B28430884000008F000DD
:10014600440884000008F002F101031CF1030800D2
:10015600831603139816903083129800831686141C
:10016600061183128C1EBA281A08F000B42808005B
:10017600433083120313A000A1014230A200A30161
:100186004430A400A5014130A600A7013030A800E4
:100196007C30A9003030AA007C30AB003030AC0097
:1001A6007C30AD003030AE007C30AF003030B00077
:1001B6007C30B1003030B2007C30B3003030B40057
:1001C6005F30B500B601FC30831685000730831218
:1001D6009F00831606118614193099001815AB2056
:1001E6008230FC00DD30FD00FD0BF728FC0BF72804
:1001F600000000000514851405158515051605175C
:100206008517051C09293130A8000B293030A800B4
:10021600851C10293130AA0012293030AA00051D8C
:1002260017293130AC0019293030AC00851D1E2944
:100236003130AE0020293030AE00051E2529313080
:10024600B00027293030B000051F2C293130B2000C
:100256002E293030B200851F33293130B4003529BC
:100266003030B4001F207008013A031D7929393057
:10027600C3003530C4000A30C50026203930C3001B
:100286002630C4008B2000307106031D4C29003037
:100296007006031D4F2905103930C3002230C400F3
:1002A6008B2000307106031D5A2900307006031D8D
:1002B6005D2905143930C3002030C4008B2000307E
:1002C6007106031D682900307006031D6B29851011
:1002D6003930C3002430C4008B2000307106031D62
:1002E600762900307006031D792985141030FB002D
:1002F6003930FC000D30FD00FD0B7F29FC0B7F29FA
:10030600FB0B7F29000000002830C3006920042968
:020316008B2931
:02400E0070211F
:00000001FF
