:02000000BB281B
:0E0006008312031339088A00380882000800AC
:10001400831603139818102800000A288312400836
:040024009900080037
:10002800831203131A08F100981C1C2818121816BA
:060038007108F000080051
:0E003E000030831203138C1A0130F00008000A
:10004C0083120313BE01BF013C08031965283C0849
:10005C00FF3A03193228BC031F207008003A031D15
:10006C003828322814207008BD003E083A07840056
:10007C0070088000BE0A3F083B07840000083D065C
:10008C00031D4A28BF0A5228BF013B088400000800
:10009C003D06031D5228BF0A3F083B078400000899
:1000AC00003A031D64283F083E02F000F101031CD6
:1000BC00F10370083A078400800168282A283A085E
:0600CC0084008001080021
:1000D20083120313BC013A0884000008BB003B08EA
:1000E200003A03197E283B08C0000A20BC0A3C08DB
:0C00F2003A0784000008BB0070280800DA
:1000FE0003208A110A128000840AB80A0319B90A69
:08010E00F003031D7F28080027
:10011600831203133A088400000803199F283A083B
:1001260084000008F1003B08840071080006031DE6
:100136009F28BA0ABB0A8B283A0884000008F000F8
:100146003B0884000008F002F101031CF1030800DB
:10015600831603139816903083129800831686141C
:10016600061183128C1EBA281A08F000B42808005B
:100176005F3083120313A000A1013130A200A30156
:100186003030A400A5014430A600A7014130A800E4
:10019600A9014230AA00AB014330AC00AD01FC30EE
:1001A60083168500073083129F0083160611861476
:1001B600193099001815AB208230FC00DD30FD00A7
:1001C600FD0BE328FC0BE32800000000051085105A
:1001D600051585150516051785171F207008013AA0
:1001E600031D4E292E30BA002030BB000A30BC0059
:1001F60026202E30BA002830BB008B200030710636
:10020600031D072900307006031D0A2905142E3028
:10021600BA002A30BB008B2000307106031D152959
:1002260000307006031D182905102E30BA002C3038
:10023600BB008B2000307106031D23290030700699
:10024600031D262985142E30BA002630BB008B20CC
:1002560000307106031D312900307006031D342954
:1002660085102E30BA0069200630FB001330FC00E2
:10027600AD30FD00FD0B3D29FC0B3D29FB0B3D2957
:1002860000000000051C4B292230BA0069204E29C7
:100296002430BA0069200630FB001330FC00AD3074
:1002A600FD00FD0B5429FC0B5429FB0B54290000BF
:0602B6000000F0285D29A4
:02400E0070211F
:00000001FF
